:100000000C9434000C943E000C943E000C943E0082
:100010000C943E000C943E000C943E000C943E0068
:100020000C943E000C943E000C943E000C943E0058
:100030000C943E000C943E000C94AB000C94CE004B
:100040000C943E000C943E000C943E000C943E0038
:100050000C943E000C943E000C943E000C943E0028
:100060000C943E000C943E0011241FBECFEFD8E04C
:10007000DEBFCDBF0E9440000C94F1000C94000044
:10008000DF93CF93CDB7DEB7A7E2B0E0E7E2F0E0D1
:10009000808180628C93A8E2B0E0E8E2F0E08081A9
:1000A0008F7D8C93AFE5B0E0EFE5F0E08081806874
:1000B0008C93A4E4B0E0E4E4F0E080818F778C934B
:1000C000A4E4B0E0E4E4F0E0808180648C93A4E4F4
:1000D000B0E0E4E4F0E0808182608C93A4E4B0E0DE
:1000E000E4E4F0E080818E7F8C93A5E4B0E0E5E469
:1000F000F0E08081877F8C93A5E4B0E0E5E4F0E058
:10010000808181608C93A5E4B0E0E5E4F0E080813B
:100110008D7F8C93A5E4B0E0E5E4F0E0808184601D
:100120008C93E7E4F0E08FEF8083E8E4F0E084E68E
:100130008083AEE6B0E0EEE6F0E0808182608C93F2
:10014000AEE6B0E0EEE6F0E0808184608C93E6E419
:10015000F0E01082FFCF1F920F920FB60F92112482
:100160008F93AF93BF93EF93FF93DF93CF93CDB76D
:10017000DEB7F894A8E2B0E0E8E2F0E080818F7D9D
:100180008C937894CF91DF91FF91EF91BF91AF91D4
:100190008F910F900FBE0F901F9018951F920F9286
:1001A0000FB60F9211248F93AF93BF93EF93FF93EA
:1001B000DF93CF93CDB7DEB7F894A8E2B0E0E8E2E2
:1001C000F0E0808180628C937894CF91DF91FF91F1
:1001D000EF91BF91AF918F910F900FBE0F901F9035
:0601E0001895F894FFCF12
:00000001FF
