:100000000C9434000C9449000C9449000C94490061
:100010000C9449000C9449000C9449000C9449003C
:100020000C9449000C9449000C9449000C9449002C
:100030000C9449000C9449000C9449000C9449001C
:100040000C9449000C9449000C9449000C9449000C
:100050000C9449000C9449000C9449000C944900FC
:100060000C9449000C94490011241FBECFEFD8E036
:10007000DEBFCDBF11E0A0E0B1E0E2EEFCE002C0E7
:1000800005900D92A830B107D9F70E944B000C944F
:100090006F060C940000DF93CF93CDB7DEB72E9799
:1000A0000FB6F894DEBF0FBECDBFA7E2B0E0E7E227
:1000B000F0E0808180648C93A8E2B0E0E8E2F0E0B8
:1000C000808180648C93A8E2B0E0E8E2F0E0908167
:1000D00080E489278C9380E090E0AAE7B4E48B87E2
:1000E0009C87AD87BE876B857C858D859E8520E04E
:1000F00030E04AE755E40E94B402DC01CB018F8373
:100100009887A987BA876F81788589859A8520E045
:1001100030E040E85FE30E940E0488232CF481E085
:1001200090E09E838D833FC06F81788589859A8515
:1001300020E03FEF4FE757E40E94AE0318164CF55E
:100140006B857C858D859E8520E030E040E251E422
:100150000E94B402DC01CB01BC01CD010E94DE0093
:10016000DC01CB019E838D830FC080E991E09C83ED
:100170008B838B819C810197F1F79C838B838D818D
:100180009E8101979E838D838D819E81009769F763
:100190009ACF6F81788589859A850E94DE00DC017F
:1001A000CB019E838D838D819E819A8389838981F2
:1001B0009A810197F1F79A83898385CFEF92FF9215
:1001C0000F931F937B018C0120E030E040E05FE45F
:1001D0000E94DE0388238CF0C801B70120E030E0E4
:1001E00040E05FE40E9456020E943E049B01AC0185
:1001F000205030404040504806C0C801B7010E941E
:100200003E049B01AC01B901CA011F910F91FF90FF
:10021000EF900895A0E0B0E0E0E1F1E00C94380642
:10022000DC012B01FA019C91923008F439C1EB01F9
:100230008881823008F433C1943069F4843009F045
:100240002FC111969C9111978981981709F428C1A3
:10025000A0E0B1E025C1843009F421C18230A9F4C5
:10026000923009F01DC19A01AD0188E0EA010990C0
:10027000AE01E90109929E018150C1F7E201898135
:1002800011969C918923818308C1923009F407C19A
:1002900012962D903C901397EB018A819B811496C6
:1002A000AD90BD90CD90DC901797EC80FD800E81D5
:1002B0001F819101281B390BB90137FF04C0662744
:1002C0007727621B730B603271050CF061C0121648
:1002D00013066CF537014801062E04C096948794E6
:1002E000779467940A94D2F721E030E040E050E040
:1002F00004C0220F331F441F551F6A95D2F72150A7
:100300003040404050402E213F21402351232115B1
:1003100031054105510521F021E030E040E050E099
:1003200079018A01E628F728082919293CC0232BDE
:10033000D1F1260E371E35014601062E04C09694D3
:100340008794779467940A94D2F721E030E040E0F4
:1003500050E004C0220F331F441F551F6A95D2F787
:1003600021503040404050402A213B214C215D210A
:10037000211531054105510521F021E030E040E033
:1003800050E059016A01A628B728C828D9280BC00F
:10039000821593052CF01C01AA24BB24650103C01F
:1003A000EE24FF24870111969C91D20111968C9125
:1003B000981709F445C0992339F0A80197012A1923
:1003C0003B094C095D0906C0A60195012E193F099C
:1003D000400B510B57FD08C01182338222822483C7
:1003E0003583468357831DC081E081833382228217
:1003F00088279927DC01821B930BA40BB50B848300
:100400009583A683B7830DC0220F331F441F551F4A
:100410002483358346835783828193810197938315
:1004200082832481358146815781DA01C901019790
:10043000A109B1098F5F9F4FAF4FBF4328F30BC096
:10044000918333822282EA0CFB1C0C1D1D1DE48269
:10045000F5820683178383E080832481358146817A
:10046000578157FF1AC0C901AA2797FDA095BA2F37
:1004700081709070A070B07056954795379527950C
:10048000822B932BA42BB52B84839583A683B783D0
:1004900082819381019693838283DF0101C0D2011F
:1004A000CD01CDB7DEB7E2E10C945406A0E2B0E096
:1004B000ECE5F2E00C94440669837A838B839C8399
:1004C0002D833E834F835887E9E0EE2EF12CEC0E0E
:1004D000FD1ECE010196B7010E9467058E010F5ED9
:1004E0001F4FCE010596B8010E9467058A8991E0E9
:1004F00089278A8BC701B801AE01475E5F4F0E9412
:100500000A010E949204A096E6E00C946006A0E224
:10051000B0E0EDE8F2E00C94440669837A838B83C3
:100520009C832D833E834F835887F9E0EF2EF12C77
:10053000EC0EFD1ECE010196B7010E9467058E01EB
:100540000F5E1F4FCE010596B8010E946705C701D7
:10055000B801AE01475E5F4F0E940A010E949204FB
:10056000A096E6E00C946006A0E2B0E0EAEBF2E0D0
:100570000C94380669837A838B839C832D833E8316
:100580004F835887CE010196BE01675F7F4F0E945F
:100590006705CE010596BE016F5E7F4F0E9467051D
:1005A0009985923088F089898230C8F0943019F4A6
:1005B000823051F404C0843029F4923081F480E018
:1005C00091E0C6C0923049F420E09A858A89981358
:1005D00021E02A87CE010996BBC0823049F420E091
:1005E0009A858A89981321E02A8BCE014196B0C062
:1005F0002D843E844F8458886D887E888F88988C9F
:10060000EE24FF248701AA24BB24650140E050E0CA
:1006100060E070E0E0E0F0E0C10181709070892B53
:10062000E9F0E60CF71C081D191D9A01AB012A0D13
:100630003B1D4C1D5D1D80E090E0A0E0B0E0E614A5
:10064000F7040805190520F481E090E0A0E0B0E08F
:10065000BA01A901480F591F6A1F7B1FAA0CBB1CB6
:10066000CC1CDD1C97FE08C081E090E0A0E0B0E06B
:10067000A82AB92ACA2ADB2A3196E032F10549F0C4
:10068000660C771C881C991C5694479437942794C1
:10069000C3CFFA85EA892B893C898B859C85280FF5
:1006A000391F2E5F3F4F17C0CA0181709070892B90
:1006B00061F016950795F794E79480E090E0A0E04C
:1006C000B0E8E82AF92A0A2B1B2B769567955795EF
:1006D00047952F5F3F4F77FDE7CF0CC0440F551F65
:1006E000661F771F17FD4160EE0CFF1C001F111FD6
:1006F00021503040403090E0590790E0690790E485
:10070000790760F32B8F3C8FDB01CA018F779070E4
:10071000A070B07080349105A105B10561F447FD6A
:100720000AC0E114F1040105110529F0405C5F4F96
:100730006F4F7F4F40781A8EFE1711F081E08A8F3D
:100740004D8F5E8F6F8F78A383E0898FCE0149969E
:100750000E949204A096E2E10C945406A8E1B0E055
:10076000E4EBF3E00C94440669837A838B839C83E7
:100770002D833E834F83588789E0E82EF12CEC0EC1
:10078000FD1ECE010196B7010E9467058E010F5E26
:100790001F4FCE010596B8010E94670589858230FA
:1007A00040F08989823028F0C701B8010E94DF0536
:1007B00001C08FEF6896E6E00C946006A8E1B0E017
:1007C000E4EEF3E00C94440669837A838B839C8384
:1007D0002D833E834F83588789E0E82EF12CEC0E61
:1007E000FD1ECE010196B7010E9467058E010F5EC6
:1007F0001F4FCE010596B8010E946705898582309A
:1008000040F08989823028F0C701B8010E94DF05D5
:1008100001C08FEF6896E6E00C946006A8E1B0E0B6
:10082000E4E1F4E00C94440669837A838B839C832F
:100830002D833E834F83588789E0E82EF12CEC0E00
:10084000FD1ECE010196B7010E9467058E010F5E65
:100850001F4FCE010596B8010E9467058985823039
:1008600040F08989823028F0C701B8010E94DF0575
:1008700001C081E06896E6E00C946006ACE0B0E070
:10088000E4E4F4E00C94480669837A838B839C83C8
:10089000CE010196BE016B5F7F4F0E9467058D817F
:1008A000823061F1823050F1843021F48E818823CE
:1008B00051F12EC02F81388537FD20C06E812F3138
:1008C00031051CF06623F9F023C08EE190E0821B15
:1008D000930B29853A854B855C8504C056954795D1
:1008E000379527958A95D2F76623B1F050954095B4
:1008F000309521953F4F4F4F5F4F0EC020E030E0C5
:1009000040E050E009C02FEF3FEF4FEF5FE704C03A
:1009100020E030E040E050E8B901CA012C96E2E066
:100920000C946406DF92EF92FF920F931F93FC01E9
:10093000E480F58006811781D1808081823048F47F
:1009400080E090E0A0E1B0E0E82AF92A0A2B1B2B16
:10095000A5C0843009F49FC0823021F4EE24FF2426
:10096000870105C0E114F1040105110519F4E0E067
:10097000F0E096C0628173819FEF623879070CF0D6
:100980005BC022E83FEF261B370B2A3131052CF0E4
:1009900020E030E040E050E02AC0B801A701022E7C
:1009A00004C076956795579547950A94D2F781E0EC
:1009B00090E0A0E0B0E004C0880F991FAA1FBB1F01
:1009C0002A95D2F70197A109B1098E219F21A02371
:1009D000B1230097A105B10521F081E090E0A0E0EE
:1009E000B0E09A01AB01282B392B4A2B5B2BDA01A3
:1009F000C9018F779070A070B07080349105A10507
:100A0000B10539F427FF09C0205C3F4F4F4F5F4FBE
:100A100004C0215C3F4F4F4F5F4FE0E0F0E02030DB
:100A2000A0E03A07A0E04A07A0E45A0710F0E1E08E
:100A3000F0E079018A0127C06038710564F5FB0197
:100A4000E158FF4FD801C7018F779070A070B07048
:100A500080349105A105B10539F4E7FE0DC080E4AD
:100A600090E0A0E0B0E004C08FE390E0A0E0B0E050
:100A7000E80EF91E0A1F1B1F17FF05C016950795E4
:100A8000F794E794319687E016950795F794E794E5
:100A90008A95D1F705C0EE24FF248701EFEFF0E03F
:100AA0006E2F679566276795902F9F77D794DD24E3
:100AB000D7948E2F8695492F462B582F5D29B70145
:100AC000CA011F910F91FF90EF90DF900895FC01F4
:100AD000DB01408151812281622F6F7770E0221FFC
:100AE0002227221F9381892F880F822B282F30E005
:100AF000991F9927991F11969C93119721153105DC
:100B0000A9F5411551056105710511F482E037C061
:100B100082E89FEF13969C938E9312979A01AB01F4
:100B200067E0220F331F441F551F6A95D1F783E0FA
:100B30008C930DC0220F331F441F551F12968D91A9
:100B40009C911397019713969C938E931297203044
:100B500080E0380780E0480780E4580758F314968F
:100B60002D933D934D935C93179708952F3F310537
:100B700079F4411551056105710519F484E08C93F0
:100B8000089564FF03C081E08C9312C01C9210C0D2
:100B90002F57304013963C932E93129783E08C93FB
:100BA00087E0440F551F661F771F8A95D1F7706441
:100BB00014964D935D936D937C93179708951F93AF
:100BC000DC01FB019C91923008F447C080818230A7
:100BD00008F443C0943051F411961C91843099F577
:100BE0008181682F70E0611B71093FC0843021F062
:100BF000923031F48230B9F18181882389F12DC09E
:100C000011961C9111978230F1F081811817D9F457
:100C100012962D913C9113978281938182179307AD
:100C200094F028173907BCF014968D919D910D9082
:100C3000BC91A02D24813581468157812817390721
:100C40004A075B0718F4112341F00AC08217930783
:100C5000A407B50740F4112319F061E070E005C066
:100C60006FEF7FEF02C060E070E0CB011F9108954D
:100C70002F923F924F925F926F927F928F929F92AC
:100C8000AF92BF92CF92DF92EF92FF920F931F939A
:100C9000CF93DF93CDB7DEB7CA1BDB0B0FB6F8944B
:100CA000DEBF0FBECDBF09942A88398848885F848B
:100CB0006E847D848C849B84AA84B984C884DF80FC
:100CC000EE80FD800C811B81AA81B981CE0FD11DE0
:100CD0000FB6F894DEBF0FBECDBFED010895F894B6
:020CE000FFCF44
:080CE20000000000000000000A
:00000001FF
