:100000000C9434000C943E000C943E000C943E0082
:100010000C943E000C943E000C943E000C943E0068
:100020000C943E000C943E000C943E000C943E0058
:100030000C943E000C943E000C943E000C943E0048
:100040000C943E000C943E000C943E000C943E0038
:100050000C943E000C943E000C943E000C943E0028
:100060000C943E000C943E0011241FBECFEFD8E04C
:10007000DEBFCDBF0E9440000C948B000C940000AA
:10008000DF93CF93CDB7DEB7AAE2B0E0EAE2F0E0CB
:10009000808180648C93A4E4B0E0E4E4F0E08081AB
:1000A00081608C93A4E4B0E0E4E4F0E080818260BD
:1000B0008C93A5E4B0E0E5E4F0E08081877F8C9349
:1000C000A4E4B0E0E4E4F0E0808180688C93A4E4F0
:1000D000B0E0E4E4F0E0808180648C93A5E4B0E0DB
:1000E000E5E4F0E0808181608C93A5E4B0E0E5E494
:1000F000F0E080818D7F8C93A5E4B0E0E5E4F0E052
:10010000808184608C93E7E4F0E08FE78083E6E40D
:0A011000F0E01082FFCFF894FFCF5B
:00000001FF
