:100000000C9434000C9446000C9446000C941C0193
:100010000C9446000C9446000C9446000C94460048
:100020000C9446000C9446000C9446000C94460038
:100030000C9446000C9446000C9446000C94460028
:100040000C9495000C9446000C9446000C944600C9
:100050000C9446000C9446000C9446000C94460008
:100060000C9446000C94460011241FBECFEFD8E03C
:10007000DEBFCDBF11E0A0E0B1E001C01D92A33012
:10008000B107E1F70E94C3000C943F010C940000FB
:10009000DF93CF9300D0CDB7DEB79A8389831092D8
:1000A000010110920001A4E4B0E0E4E4F0E08081FA
:1000B0008E7F8C93A4E4B0E0E4E4F0E080818D7F57
:1000C0008C93A5E4B0E0E5E4F0E08081877F8C9339
:1000D000A5E4B0E0E5E4F0E0808181608C93A5E4E4
:1000E000B0E0E5E4F0E080818D7F8C93A5E4B0E0A2
:1000F000E5E4F0E0808184608C93E6E4F0E0108237
:10010000AEE6B0E0EEE6F0E0808181608C9329817C
:100110003A81809100019091010182179307B8F311
:100120000F900F90CF91DF9108951F920F920FB60D
:100130000F9211248F939F93AF93BF93EF93FF93ED
:10014000DF93CF93CDB7DEB7F89480910001909103
:10015000010101969093010180930001A5E3B0E0B5
:10016000E5E3F0E080818E7F8C937894CF91DF91EE
:10017000FF91EF91BF91AF919F918F910F900FBE23
:100180000F901F901895DF93CF9300D0CDB7DEB7B7
:10019000AAE2B0E0EAE2F0E0808181608C93ABE219
:1001A000B0E0EBE2F0E0808181608C93A4E2B0E00B
:1001B000E4E2F0E080818E7F8C93A5E2B0E0E5E29E
:1001C000F0E0808181608C93AFE5B0E0EFE5F0E096
:1001D000808180688C93A8E6B0E0E8E6F0E080815A
:1001E00081608C93ABE6B0E0EBE6F0E0808181606B
:1001F0008C93809102018E7F809302018EE390E0C8
:100200009A838983809102018170882369F0ABE22F
:10021000B0E0EBE2F0E0908181E089278C93898166
:100220009A810E944800EECFABE2B0E0EBE2F0E052
:1002300080818E7F8C93E6CF1F920F920FB60F9224
:1002400011248F939F93DF93CF93CDB7DEB7F894AC
:1002500080910201817080958170982F91708091BA
:1002600002018E7F892B809302017894CF91DF91D8
:100270009F918F910F900FBE0F901F901895F8943B
:02028000FFCFAE
:00000001FF
