:100000000C9434000C9446000C9446000C94A4010B
:100010000C9446000C94FE010C9446000C9446008F
:100020000C9446000C9446000C9446000C94460038
:100030000C9446000C9446000C9446000C94460028
:100040000C94B1000C9446000C9446000C944600AD
:100050000C9446000C9446000C9446000C94460008
:100060000C9446000C94460011241FBECFEFD8E03C
:10007000DEBFCDBF11E0A0E0B1E001C01D92A33012
:10008000B107E1F70E94DF000C9426020C940000F7
:10009000DF93CF9300D000D0CDB7DEB79A838983AA
:1000A000109201011092000189819A819C838B83B7
:1000B0008B819C8199232CF48B819C810F969C834E
:1000C0008B838B819C819595879595958795959543
:1000D0008795959587959A838983A4E4B0E0E4E4B5
:1000E000F0E080818E7F8C93A4E4B0E0E4E4F0E063
:1000F00080818D7F8C93A5E4B0E0E5E4F0E0808121
:10010000877F8C93A5E4B0E0E5E4F0E08081816036
:100110008C93A5E4B0E0E5E4F0E080818D7F8C93E2
:10012000A5E4B0E0E5E4F0E0808184608C93E6E44F
:10013000F0E01082AEE6B0E0EEE6F0E080818160B3
:100140008C9329813A81809100019091010182175D
:100150009307B8F30F900F900F900F90CF91DF910E
:1001600008951F920F920FB60F9211248F939F93B1
:10017000AF93BF93EF93FF93DF93CF93CDB7DEB7EA
:10018000F8948091000190910101019690930101F2
:1001900080930001A5E3B0E0E5E3F0E080818E7F8D
:1001A0008C937894CF91DF91FF91EF91BF91AF91B4
:1001B0009F918F910F900FBE0F901F901895DF9316
:1001C000CF93CDB7DEB7A7E2B0E0E7E2F0E0808101
:1001D00080628C93A8E2B0E0E8E2F0E08081806287
:1001E0008C93A7E2B0E0E7E2F0E0808180648C933A
:1001F000A8E2B0E0E8E2F0E0808180648C93A4E2C1
:10020000B0E0E4E2F0E080818E7F8C93A5E2B0E084
:10021000E5E2F0E0808181608C93AAE2B0E0EAE25E
:10022000F0E080818F7B8C93ABE2B0E0EBE2F0E01A
:10023000808180648C93AFE5B0E0EFE5F0E08081F1
:1002400080688C93A8E6B0E0E8E6F0E08081816009
:100250008C93ABE6B0E0EBE6F0E0808181608C93BC
:10026000A8E6B0E0E8E6F0E0808184608C93ADE63B
:10027000B0E0EDE6F0E0808180648C930E9445015F
:1002800080E090E0CF91DF910895DF93CF93CDB7D9
:10029000DEB7809102018E7F80930201809102017E
:1002A0008D7F809302018091020181708823A1F4E7
:1002B000809102018270882379F0A8E2B0E0E8E240
:1002C000F0E080818F7D8C93A8E2B0E0E8E2F0E07E
:1002D00080818F7B8C93E7CF80910201817088238E
:1002E000A1F0809102018270882379F4A8E2B0E045
:1002F000E8E2F0E0808180628C93A8E2B0E0E8E27E
:10030000F0E0808180648C93CECF80910201817077
:10031000882349F6809102018270882321F6A8E2A1
:10032000B0E0E8E2F0E0908180E289278C93A8E2D7
:10033000B0E0E8E2F0E0908180E489278C9388EED9
:1003400093E00E944800AFCF1F920F920FB60F921A
:1003500011248F939F93DF93CF93CDB7DEB7F8949B
:10036000809102018170882399F48091020182704A
:10037000882371F480910201817080958170982F9B
:100380009170809102018E7F892B809302012CC095
:10039000809102018170882399F48091020182701A
:1003A000882371F080910201817080958170982F6F
:1003B0009170809102018E7F892B8093020114C07D
:1003C000809102018170882379F08091020182700E
:1003D000882351F0809102018E7F809302018091E9
:1003E00002018D7F809302017894CF91DF919F91DC
:1003F0008F910F900FBE0F901F9018951F920F9224
:100400000FB60F9211248F93DF93CF93CDB7DEB742
:10041000F894809102018170882379F08091020123
:100420008270882351F4809102018E7F80930201B3
:10043000809102018260809302017894CF91DF91D4
:100440008F910F900FBE0F901F901895F894FFCFCB
:00000001FF
