:100000000C9434000C94B5010C9446000C94190126
:100010000C9446000C9465010C9446000C94460028
:100020000C9446000C9446000C9446000C94460038
:100030000C9446000C9446000C9446000C94460028
:100040000C9446000C9446000C9446000C94460018
:100050000C9446000C9446000C9446000C94460008
:100060000C9446000C94460011241FBECFEFD8E03C
:10007000DEBFCDBF11E0A0E0B1E001C01D92A13014
:10008000B107E1F70E9448000C94D1010C940000E4
:10009000DF93CF93CDB7DEB7AAE2B0E0EAE2F0E0BB
:1000A000808180648C93ABE2B0E0EBE2F0E0808191
:1000B0008F7B8C93A7E2B0E0E7E2F0E08081806282
:1000C0008C93A8E2B0E0E8E2F0E080818F7D8C9331
:1000D000AAE2B0E0EAE2F0E080818B7F8C93ABE2B1
:1000E000B0E0EBE2F0E0808184608C93AAE2B0E0C3
:1000F000EAE2F0E080818F778C93ABE2B0E0EBE254
:10010000F0E0808180688C93A4E2B0E0E4E2F0E06B
:1001100080818B7F8C93A5E2B0E0E5E2F0E0808106
:1001200084608C93AFE5B0E0EFE5F0E0808180681B
:100130008C93A9E6B0E0E9E6F0E0808181608C93E1
:10014000A9E6B0E0E9E6F0E080818D7F8C93ADE335
:10015000B0E0EDE3F0E0808181608C93A8E6B0E050
:10016000E8E6F0E0808181608C93ABE6B0E0EBE6FE
:10017000F0E0808184608C93A8E6B0E0E8E6F0E0EF
:10018000808184608C93ADE6B0E0EDE6F0E08081A4
:1001900080688C93A4E4B0E0E4E4F0E080818160C6
:1001A0008C93A4E4B0E0E4E4F0E0808182608C937E
:1001B000A5E4B0E0E5E4F0E08081877F8C93A4E4DF
:1001C000B0E0E4E4F0E0808180688C93A4E4B0E0E7
:1001D000E4E4F0E0808180648C93A5E4B0E0E5E4A1
:1001E000F0E0808181608C93A5E4B0E0E5E4F0E08C
:1001F00080818D7F8C93A5E4B0E0E5E4F0E0808120
:1002000084608C93E6E4F0E01082E7E4F0E08FEFA6
:1002100080838091000181608093000180910001C2
:1002200082608093000180910001846080930001CE
:10023000FFCF1F920F920FB60F9211248F939F93AF
:10024000EF93FF93DF93CF93CDB7DEB7F894809110
:1002500000018170882391F0E7E4F0E083EB808374
:1002600080910001817080958170982F91708091AC
:1002700000018E7F892B809300011BC080910001BB
:1002800081708823B1F4809100018270882389F401
:10029000E7E4F0E08FEF808380910001817080952A
:1002A0008170982F9170809100018E7F892B8093AF
:1002B00000017894CF91DF91FF91EF919F918F9101
:1002C0000F900FBE0F901F9018951F920F920FB6B0
:1002D0000F9211248F939F93EF93FF93DF93CF930C
:1002E000CDB7DEB7F8948091000182708823A1F029
:1002F000E7E4F0E089E580838091000186958170D4
:10030000809581708170982F990F809100018D7F69
:10031000892B809300011DC0809100018270882389
:10032000C1F4809100018270882399F4E7E4F0E041
:100330008FEF808380910001869581708095817018
:100340008170982F990F809100018D7F892B809368
:1003500000017894CF91DF91FF91EF919F918F9160
:100360000F900FBE0F901F9018951F920F920FB60F
:100370000F9211248F93EF93FF93DF93CF93CDB719
:10038000DEB7F894E7E4F0E08FEF80837894CF91C4
:10039000DF91FF91EF918F910F900FBE0F901F9003
:0603A0001895F894FFCF50
:00000001FF
